:100000000C9435030C947C030C947C030C947C03BB
:100010000C947C030C947C030C947C030C947C0364
:100020000C947C030C947C030C940C230C94C82239
:100030000C94272D0C947C030C947C030C947C036F
:100040000C947C030C947C030C947C030C947C0334
:100050000C947C030C94032D0C947C030C947C0373
:100060000C947C030C947C030C947C030C947C0314
:100070000C947C030C947C030C947C030C947C0304
:100080000C947C030C947C030C947C030C947C03F4
:100090000C947C030C947C030C947C030C947C03E4
:1000A0000C947C030C947C030C947C0305010902E2
:1000B000A10185020901A1000509190129081500FE
:1000C0002501950875018102050109300931158165
:1000D000257F95027508810609381581257F9501D0
:1000E00075088106050C0A38021581257F95017572
:1000F000088106C0C005010980A101850319012AF4
:10010000B700150126B700950175108100C0050CD8
:100110000901A101850419012AA002150126A002E6
:10012000950175108100C005010906A1018505052D
:100130000719E029E71500250195087501810205D9
:1001400007190029EF1500250195F07501810205B9
:10015000081901290595057501910295017503910D
:1001600001C00660FF0961A1010962150026FF00B8
:100170009520750881020963150026FF00952075FA
:10018000089102C005010906A101050719E029E748
:1001900015002501950875018102950175088101F9
:1001A0000507190029FF150026FF0095067508812F
:1001B000000508190129059505750191029501753C
:1001C000039101C0000101010101010101010202CD
:1001D00002020202020202030303030303030304F5
:1001E00004040404040405050505050606060606C0
:1001F000070707070708080808090909090A0A0A7A
:100200000B0B0B0C0C0C0D0D0D0E0E0E0F0F0F101B
:1002100010111111121213131414151516161717A5
:10022000181819191A1A1B1B1C1D1D1E1E1F202011
:10023000212222232424252626272829292A2B2C5B
:100240002D2D2E2F30313232333435363738393A7E
:100250003B3C3D3E3F404142434445464748494A76
:100260004C4D4E4F50515354555658595A5B5D5E44
:100270005F616264656668696B6C6D6F70727375DF
:1002800077787A7B7D7E8082838587888A8C8E8F43
:1002900091939596989A9C9EA0A2A3A5A7A9ABAD71
:1002A000AFB1B3B5B7BABCBEC0C2C4C6C9CBCDCF5F
:1002B000D1D4D6D8DBDDDFE2E4E7E9EBEEF0F3F50D
:1002C000F8FAFDFF165C1E001F002000210022002E
:1002D000230024002500260027002D002E002A00E0
:1002E0004C002B0014001A000800150017001C0019
:1002F00018000C00120013002F00300028004A00E4
:100300003900000004001600070009000A000B0075
:100310000D000E000F003300340031004B00E100EF
:1003200031001D001B00060019000500110010001F
:10033000360037003800E50052004E00E000E300D0
:10034000E2000000000000002C0000000000E600B9
:1003500001510000500051004F00005C3A003B008A
:100360003C003D003E003F00400041004200430091
:1003700044004500010001000100C25CC35CC55C93
:10038000C65CC75CC85CC95CCA5C010001000100B6
:100390000100010001000100000001000100010056
:1003A0000100010001000100010001000100010045
:1003B0000100010001000100010001000100010035
:1003C0000100010001000100010001000100010025
:1003D0000100010001000100000000000000010018
:1003E0000000000001000100000001000100010008
:1003F00001000100010001000100010001000100F5
:1004000001000100010001000100010001000100E4
:1004100001000100010001000100010001000100D4
:1004200001000100010001000100010001000000C5
:1004300001000100010001000100010001000100B4
:1004400001000100010001000100010001000100A4
:100450000100010001000100010001000100010094
:100460000100010001000100010001000100000085
:100470000000000001000000000001000100000079
:100480000100010001000100010001000100010064
:100490000100010001000100010001000100010054
:1004A0000100010001000100010001000100010044
:1004B0000100010001000100010001000100010034
:1004C0000100010000000100010001000100010025
:1004D0000100010001000100010001000100010014
:1004E0000100010001000100010001000100010004
:1004F00001000100010001000100010001000100F4
:1005000001000100000000000000010000000000E8
:1005100001000100000001000100010000000000D6
:1005200000000000000000000000000000000000CB
:1005300000000000000000000000000000000000BB
:100540007E0F00D4FFFFFFC700000078000000000E
:10055000000000002A2B280000000000000000001E
:100560000000000000000029000000002C1E3420C4
:10057000212224342627252E362D3738271E1F20EA
:100580002122232425263333362E37381F0405062F
:100590000708090A0B0C0D0E0F1011121314151673
:1005A0001718191A1B1C1D2F3130232D3504050671
:1005B0000708090A0B0C0D0E0F1011121314151653
:1005C0001718191A1B1C1D2F3130354C09025B00FE
:1005D000030100A0FA090400000103010100092140
:1005E00011010001224000070581030800010904F0
:1005F0000100020300000009211101000122220074
:1006000007058203200001070503032000010904F8
:100610000200010300000009211101000122B600BF
:10062000070584032000011201100100000008509A
:100630004B5306010001020001100342004D003639
:10064000003500490053004F00000018034B0050D4
:10065000002000520065007000750062006C0069A7
:100660000063000000040309040011241FBECFEF43
:10067000DAE0DEBFCDBF04B603FE27C08091E504FB
:100680009091E604A091E704B091E8048730904B84
:10069000A740B04BD1F41092E5041092E6041092FA
:1006A000E7041092E80414BE84B7877F84BF0FB6B6
:1006B000F894A89580916000886180936000109202
:1006C00060000FBEE0E0F8E3099524E0AEE9B2E097
:1006D00001C01D92A53EB207E1F712E0A0E0B1E033
:1006E000ECEFFDE502C005900D92AE39B107D9F7E8
:1006F0000E94E3230C949D2E0C940000E8EDF0E0A2
:1007000080818E7F80831092E2001092DA00109236
:10071000E100A0EEB0E08C9181608C9380818F77B6
:10072000808319BCA7EDB0E08C918E7F8C93808183
:100730008F7E808310927C0408952091E400309194
:10074000E50095E6A9012091EC00822F817020FF41
:1007500006C08091E80080FF06C080E008952091E7
:10076000E80022FD1AC08091A104882389F0853019
:1007700089F08091EB0085FD0FC02091E40030915D
:10078000E50042175307F9F29150E1F684E008952D
:1007900082E0089583E0089581E00895EF92FF924A
:1007A0000F931F93CF937C018B010E949D03C82F51
:1007B000811117C08091E80085FD0BC08091E80091
:1007C0008E778093E8000E949D03882399F3C82FB9
:1007D00008C0F70181917F018093F1000150110958
:1007E00049F78C2FCF911F910F91FF90EF900895B3
:1007F0008091A30487FF13C08091E80082FF06C0A8
:100800008091E8008B778093E80004C08091A10478
:100810008111F2CF08958091A1048823D9F38091AA
:10082000E80080FFF8CF8091E8008E77ECCF982F1A
:100830009093E900242F762F50E0891731F07091C2
:10084000EC002091ED005091F00021FD07C09F5F6A
:10085000973071F78093E90081E008953091EB00C3
:100860003E7F3093EB003091ED003D7F3093ED0003
:100870003091EB0031603093EB007093EC002093EB
:10088000ED005093F0002091EE0027FDE0CF80E0D6
:100890000895CF92DF92EF92FF920F931F93CF9321
:1008A000DF93C8EDD0E088818F7E8883E7EDF0E0AC
:1008B00080818160808384E082BF81E080937C04BA
:1008C00088818E7F888302EE10E0F80110821092FA
:1008D000DA0081EEC82ED12CF601108288818F7744
:1008E000888388818068888388818F7D888319BC0C
:1008F0001092A1041092A2041092A00410929F04DE
:1009000090EEE92EF12CF70180818B7F8083888126
:100910008160888342E060E080E00E941704F60175
:1009200080818E7F8083F8018081816080838081D7
:1009300088608083F70180818E7F808388818061D9
:100940008883DF91CF911F910F91FF90EF90DF90FF
:10095000CF900895FC018091A9049091AA04861774
:100960009707A0F06115710529F49091E8009E7732
:100970009093E80090E06115710551F4911108C061
:100980008091E80082FF34C080E00895BC01F2CF7E
:100990008091A1048823C1F18530C1F18091E800E4
:1009A00083FD30C08091E80082FDEACF8091E800AD
:1009B00080FFE1CF8091F3002091F200382F611584
:1009C000710519F02830310558F091E028303105D3
:1009D00009F090E02091E8002E772093E800CBCF3B
:1009E00081918093F100615071092F5F3F4FE7CFF4
:1009F0008091A104882341F0853041F08091E80086
:100A000083FFBECF81E0089582E0089583E00895DA
:100A1000EF92FF920F939701201B31092F3F310571
:100A200019F010F02FEF30E02095382F320F08F436
:100A30003FEF832F0F91FF90EF900895EF92FF9279
:100A40000F939701201B31092F3F310519F010F04A
:100A50002FEF30E0322F3095482F430F08F44FEF3F
:100A6000842F620F0F91FF90EF900895EF92FF9205
:100A70000F93972F093438F4B701601B71096F3F4A
:100A8000710519F010F06FEF70E0485F5F4F413172
:100A9000510540F0A901485F5F4F4131510510F009
:100AA0006FEF70E06095482F460F08F44FEF842FEA
:100AB00037FF02C02D5F3F4F359527953595279518
:100AC0006091DC04620F792F0F91FF90EF900895F1
:100AD000EF92FF920F931F930E0D1F2D111DF90121
:100AE00037FF03C0F195E195F10924E0EE0FFF1FF8
:100AF0002A95E1F7EF3FF10519F014F0EFEFF0E080
:100B00009A0157FF03C031952195310994E0220FD6
:100B1000331F9A95E1F72E173F070CF4F901E00F08
:100B2000F11FEF3FF10519F010F0EFEFF0E0E09565
:100B3000282F3E2F230F08F42FEF822F1F910F91A4
:100B4000FF90EF900895EF92FF920F93970195E039
:100B5000099F200D311D11242F3F310519F010F090
:100B60002FEF30E02095382F320F08F43FEF832F1E
:100B70000F91FF90EF90089522E8241B08F420E0E5
:100B8000620F08954095282F429F412D1124842FF4
:100B90000895E42FF0E0EE0FFF1FE154FE4F908127
:100BA000921B97FD9195292F38E1239F212D112428
:100BB000620F08950F931F9310E0F801EE0FFF1FCF
:100BC000E154FE4F9081905797FD9195000F111FB2
:100BD000F801E054FE4F00810052110B2003F00198
:100BE000219FF00D112408E310E0091B110997FD66
:100BF000139540039001419F300D1124E20FF31F24
:100C00009F01220F331F2E0F3F1F37FF02C02158B5
:100C10003F4F220F232F221F330B620F1F910F9183
:100C200008950F931F93522F10E0F801EE0FFF1F4E
:100C3000E054FE4FA081A052BB0B9D015203F00176
:100C4000539FF00D1124000F111FD801A154BE4F66
:100C50000C910057110B40039001419F300D11245E
:100C60002E0F3F1F37FF02C0215C3F4F96E03595A6
:100C700027959A95E1F7620F1F910F9108950F93B1
:100C80001F93522F10E0F801EE0FFF1FE054FE4FAC
:100C9000A081A052BB0B9D015203F001539FF00DA8
:100CA0001124000F111FD801A154BE4F0C91005701
:100CB000110B40039001419F300D11242E0F3F1F57
:100CC00037FF02C021583F4F220F232F221F330B23
:100CD000620F1F910F910895EF920F93972F23E0CA
:100CE000029FB0011124759567956E0D792F0F91B4
:100CF000EF900895322F50E0FA01EE0FFF1FE054FD
:100D0000FE4F9081905297FD9195440F551FFA0127
:100D1000E154FE4F2081231B330B290F311D97FD1A
:100D20003A95620F0895E42FF0E0EE0FFF1FE054B4
:100D3000FE4F6081621B0895E42FF0E0EE0FFF1F6D
:100D4000E154FE4F6081621B0895622F0895E42FE5
:100D5000F0E0EE0FFF1FE154FE4F408134EE439F61
:100D6000412D1124E82FF0E050E0445E5F4FDA019E
:100D7000A21BB1099D01B7FF03C03195219531092F
:100D800093E0220F331F9A95E1F7AF01421B530BFB
:100D90009A0157FD20E0582F259F212D1124822FE5
:100DA0000895E42FF0E0EE0FFF1FE154FE4F408165
:100DB00034EE439F412D1124E72FF0E050E0445ED4
:100DC0005F4FDA01A21BB1099D01B7FF03C0319546
:100DD0002195310993E0220F331F9A95E1F7AF0176
:100DE000421B530B9A0157FD20E0279F212D112410
:100DF000722F089580E0089580917E0408959C01EB
:100E00004FB7F8948091780490917904A0917A0476
:100E1000B0917B044FBF821B930B08952FB7F894BA
:100E20008091780490917904A0917A04B0917B0428
:100E30002FBF0895209110012223C9F0209124048E
:100E400027FF15C0E62FE695E695E695EE31D8F436
:100E5000E80FF92FF11D677021E030E001C0220F8B
:100E60006A95EAF720958281282322830895FC0160
:100E7000329608962191621303C0DF0111971C92EC
:100E8000E817F907B9F70895209110012223C1F05E
:100E90002091240427FF14C0E62FE695E695E695F9
:100EA000EE31F8F4E80FF92FF11D677021E030E022
:100EB00001C0220F6A95EAF78281822B828308950E
:100EC000FC0132962FEF30E04191641751F02F3F33
:100ED00019F4411101C0232F3F5F3630A9F72F3F8E
:100EE00009F40895820F911D27FD9A95FC016283F4
:100EF0000895809115048111109215040895809130
:100F0000140490911304892B90911204892B8093DF
:100F1000A002909115049923A1F0892B8093A0023F
:100F200080911001882341F18091240487FF24C01F
:100F30008EE1E2EAF2E090E0815000F591110E942A
:100F40007907E0915404F09155043097E1F08091D5
:100F50001001882359F08091240487FF07C08091F5
:100F6000A0028093A10285E08093A0020280F38119
:100F7000E02D80EA92E0099486E0DBCF21912223E4
:100F8000D9F29F5FD9CF08952FE0929F800D112451
:100F9000982F977086958695869525E0829FF0011B
:100FA0001124E152FC4F50E040E080E0219130E01C
:100FB000092E02C0369527950A94E2F7217033274F
:100FC000042E01C0220F0A94EAF7822B4F5F5F4F75
:100FD0004530510559F708952FE0929F800D112457
:100FE000982F977041E001C0440F9A95EAF78695D3
:100FF0008695869595E0899FF0011124E152FC4F7A
:1010000090E080E070E05191DF0111979B01082E84
:1010100002C0369527950A94E2F72170219525277D
:10102000242325272C9301968530910561F7089597
:101030008091DE039091AD03981301C008958F5FF6
:101040008770FACF882341F080959091140489230A
:10105000809314040C947F070895882339F09091AD
:101060001404982B909314040C947F0708952091F6
:10107000A3033091A4032817390771F09093A403B8
:101080008093A303E0915404F0915504309721F02C
:101090000084F185E02D099408952091A1033091F9
:1010A000A2032817390771F09093A2038093A1033C
:1010B000E0915404F0915504309721F00680F781B7
:1010C000E02D09940895E0915404F091550430976F
:1010D00021F00190F081E02D099480E00895FA015B
:1010E000811101C0FB010994E3ECF2E0818360838C
:1010F0004283339693E0E13AF907C1F70895FC0182
:10110000EE0FFF1FE80FF91FED53FD4F6183408382
:10111000228308950C9474080C947F08FC019B01B1
:10112000009729F480E077FF2BC080E80895AC0198
:1011300097FF04C044275527481B590BB901640F7A
:10114000751F37FD10C0241B350BC901A5E0880FA2
:10115000991FAA95E1F70E94622D80E2861BF7FF96
:101160000FC081950895CB0165E0880F991F6A959E
:10117000E1F7BA01621B730B0E94622D80E6EECF8D
:101180000895EF920F93CF93DF93D72FC82FC90104
:101190000E19BA010E948E08602F681B7D2F8C2FBC
:1011A000DF91CF910F91EF9008950F93CF93DF933D
:1011B000D72FC82FC901BA010E948E08682F600F6F
:1011C0007D2F8C2FDF91CF910F910895EF920F9388
:1011D0001F93CF93DF93D62FC72F182FC9010E1956
:1011E000010FBA010E948E08081B202F219F212D7C
:1011F0001124822F6D2F7C2FDF91CF911F910F91A2
:10120000EF900895EF920F931F93CF93DF93D62F14
:10121000172FC82FC9010E19070FBA010E948E0897
:10122000702F781B719F712D11246D2F8C2FDF91E2
:10123000CF911F910F91EF9008950F931F93CF932C
:10124000DF93D62FC72F182FC901212F201B022F64
:10125000BA010E948E08982F990F990F891B800F51
:10126000282F219F212D1124822F6D2F7C2FDF917C
:10127000CF911F910F9108950F931F93CF93DF93F9
:10128000D62F172FC82FC901272F201B022FBA01D5
:101290000E948E08982F990F990F782F791B700F45
:1012A000719F712D11246D2F8C2FDF91CF911F9184
:1012B0000F910895E82F86FDE0952E2F2F7086FD63
:1012C0002F5FE695E695E695E670F0E0E85EFE4F66
:1012D0009181929F902D212D112492959F7022959E
:1012E000207F922B2081920F87FD919580E8890FB6
:1012F00008950F931F93CF93DF938B01D82FC42FA3
:10130000822F0E945A09EC2FF0E0EE0FFF1FE154EC
:10131000FE4F90819058890F87FD8195880F682F27
:101320002CE0629F612D1124600F712F8D2FDF91B2
:10133000CF911F910F910895AC018230910508F46F
:1013400008959FEF413E8EE1580740F49A0195E0E1
:10135000369527959A95E1F798E0920F61E0E62F90
:10136000E90FFF27FF1F9F0135952795822F229FA9
:10137000F001239FF00DF00D11244E175F0738F494
:101380009FEF920F961758F78FEF860F08952F3F14
:10139000E9F361E0620FF6CF0F93CF93DF93D72F7E
:1013A000C82F47FD419588E390E0841B910947FDD4
:1013B0009395889FB001899F700D700D1124229F15
:1013C000C001239F900D900D1124860F971F0E943E
:1013D0009C09982F990F890F682F600F7D2F8C2FF4
:1013E000DF91CF910F91089530E020E0869F212D6D
:1013F000969F200D311D1124C9010895AF92BF920F
:10140000CF92DF92FF920F931F93CF93DF93362FEC
:10141000472FE82FF0E0EC53FE4F71110FC0E4911D
:101420008E2F2E2F6E2F722FDF91CF911F910F9144
:10143000FF90DF90CF90BF90AF900895C72FD0E07E
:101440002491F22E022F10E056E0659FC001112476
:10145000EFEFF0E0BF010E944E2D832F90E0880F48
:10146000991F35E5369FD001379FB00D11248A1B97
:101470009B0B982F990F980F6F01CC1ADD0AC09E15
:10148000D001C19EB00DD09EB00D11248B2F499F6D
:10149000A0011124452F55276F01C41AD50AC09EFB
:1014A000A001C19E500DD09E500D11245F01A91ABC
:1014B000B108AC9E6001AD9ED00CBC9ED00C112436
:1014C000CD2CDD24EC19FD09E09FE001E19FD00D5A
:1014D000F09FD00D1124ED2F62307105A1F050F472
:1014E0006115710509F49ECF6130710581F0EB2F14
:1014F000852F98CF6430710569F080F066307105F2
:1015000009F490CFF4CFE22F2B2F8D2F8BCFE22F2A
:10151000252F88CFEB2F822F2D2F84CF2B2F8F2D90
:10152000E52F80CF7F928F929F92AF92BF92CF9202
:10153000DF92EF92FF920F931F93CF93DF935C01A3
:10154000C09111018FE0C89FC02D11241FE01C0F16
:10155000F12E1B3410F03AE4F32E6091DF0466950F
:101560008091D4049091D5040E94F409782ED0E0A3
:10157000CF1590F081E01A3408F080E0DF91CF9130
:101580001F910F91FF90EF90DF90CF90BF90AF90A1
:101590009F908F907F900895FE01ED5AFD4F8081BE
:1015A000909112018923C9F1CE01880F991F8C589F
:1015B0009E4FFC01E55BFF4F2081422F4057550BAA
:1015C0006A01845B9F4FFC018081282F2052330BDE
:1015D0004901449F9001459F300D300D1124889C96
:1015E000C001899C900D900D1124820F931F0E94C1
:1015F0009C09082F6091DC047091DD048091DE0469
:10160000E72C9401A601F50109950E94FE09462FD9
:10161000282F672FCE010E948C082196A9CFCF9248
:10162000DF92EF92FF920F931F93CF93DF937C0192
:10163000C09111018FE0C89FC02D11241FE01C0F25
:10164000D12E1B3410F03AE4D32E6091DF0466955E
:101650008091D4049091D5040E94F409C82ED0E062
:10166000CD1568F081E01A3408F080E0DF91CF9169
:101670001F910F91FF90EF90DF90CF900895FE01A2
:10168000ED5AFD4F808190911201892311F1CE0115
:10169000880F991F8C589E4FFC01E45BFF4F2081FF
:1016A0002052330B855B9F4FFC0140814057550B07
:1016B0006091DC047091DD048091DE040C2DF70153
:1016C00009950E94FE09462F282F672FCE010E9400
:1016D0008C082196C5CFDF92EF92FF920F931F9354
:1016E000CF93DF937C01C09111018FE0C89FC02D83
:1016F00011241FE01C0F012F1B3408F00AE4609135
:10170000DF046695669521E0620F08F46FEF809123
:10171000D4049091D5040E94F409D82ED0E0C017CB
:1017200060F081E01A3408F080E0DF91CF911F91E2
:101730000F91FF90EF90DF900895FE01ED5AFD4F5D
:10174000808190911201892391F06091DC04709165
:10175000DD048091DE042D2D4C2FF70109950E94A8
:10176000FE09462F282F672FCE010E948C08219654
:10177000D6CF9F92AF92BF92CF92DF92EF92FF921D
:101780000F931F93CF93DF936C01C09111018FE0F2
:10179000C89FC02D11241FE01C0FB12E1B3410F068
:1017A0003AE4B32E6091DF04669566958091D40487
:1017B0009091D5040E94F409F82E80E48F0D0E94C8
:1017C0005A0990E8A92EA80E8F2D0E945A0920E8E8
:1017D000922E980ED0E0CB1580F081E01A3408F0FC
:1017E00080E0DF91CF911F910F91FF90EF90DF90FC
:1017F000CF90BF90AF909F900895FE01ED5AFD4F9E
:101800008081909112018923A1F06091DC04709194
:10181000DD048091DE04EF2C0C2F292D4A2DF601DA
:1018200009950E94FE09462F282F672FCE010E949E
:101830008C082196D0CFCF92DF92EF92FF920F9338
:101840001F93CF93DF938C01C09111018FE0C89F4C
:10185000C02D11242FE0D22EDC0ECD2C2AE42D1524
:1018600010F49AE4C92E2091DF0431E0230F08F42C
:101870002FEF30E050E040E06FEF7FEF80E090E04E
:101880000E943A2E7901D0E02C2FCC1570F081E027
:10189000F9E4FD1508F480E0DF91CF911F910F91DD
:1018A000FF90EF90DF90CF900895FE01ED5AFD4F2D
:1018B000808190911201892311F14091AB04415034
:1018C000042E000C550B47FF1CC0C7016091DF04BC
:1018D00021E0620F08F46FEF0E94F409AC016091FF
:1018E000DC047091DD048091DE04F80109950E940A
:1018F000FE09462F282F672FCE010E948C082196C3
:10190000C3CFFA01E555FB4F818982130AC0FA0162
:10191000EE0FFF1FE555FB4F818D928D8E159F05B4
:10192000A8F241505109CFCF2F923F925F926F9210
:101930007F928F929F92AF92BF92CF92DF92EF925F
:10194000FF920F931F93CF93DF93CDB7DEB72A9704
:101950000FB6F894DEBF0FBECDBF8B837E836D8341
:10196000209111018FE0289F802D11248F83815FAA
:1019700089838A838B3410F03AE43A838091AB04F4
:101980008C83FF81EF2FF0E0FA87E987CF01880F82
:10199000991F9C0121543E4F69013B81832F90E0A8
:1019A000FC013196F887EF838A8199859817E8F0D2
:1019B00081E0E981EA3408F080E02A960FB6F894D5
:1019C000DEBF0FBECDBFDF91CF911F910F91FF9072
:1019D000EF90DF90CF90BF90AF909F908F907F90CF
:1019E0006F905F903F902F900895E985FA85ED5AAA
:1019F000FD4F8081909112018923F1F02090DC0449
:101A00003090DD042F81388525553B4F39015B80AF
:101A100010E0FC815F16D0F02091DE04129F112DA2
:101A20001124B101812F0E94FE09462F282F672F14
:101A300089859A850E948C0829853A852F5F3F4FBA
:101A40003A87298732E0C30ED11CAECFF3018191D2
:101A50003F01F601A080A81ABB088180F3018781AD
:101A6000881A9908AA9C9001AB9C300D300D112466
:101A7000889CC001899C900D900D1124820F931FAA
:101A80000E949C09082F6091DF0421E0620F08F496
:101A90006FEFF301EE0FFF1FEB5AF4408589968933
:101AA0000E94F4097C019401A501B101812FED810F
:101AB000FE8109951B015394182FABCF0E940E078E
:101AC0009C0190915E0480915F04982B21F03093EB
:101AD0005B0420935A049091600480916104982BD8
:101AE00021F03093580420935704E0915404F0916E
:101AF0005504309749F082E080935C040480F581BE
:101B0000E02D8CE594E00994089590E080E00E9437
:101B10004D0890E080E00E94370810921304109264
:101B200012040E947F0786E0ECE5F4E0DF011D92DD
:101B30008A95E9F710925904109256041092A60360
:101B40000C945E0D6093E1047093E2048093E304CF
:101B50009093E4040C94850D0F931F936091E1041E
:101B60007091E2048091E3049091E4048B019C0164
:101B7000067011272227332706301105210531056C
:101B800029F468601F910F910C94A20D677FFACF22
:101B90000F931F9341E050E060E070E004C0440FF9
:101BA000551F661F771F8A95D2F7CB01BA01609542
:101BB0007095809590950091E1041091E204209138
:101BC000E3043091E40460237123822393231F9163
:101BD0000F910C94A20D909111048095892380930C
:101BE0001104282F277039F4282F082E000C330BEE
:101BF0009217130621F49091250492FF07C0859552
:101C0000859585950E94C80D1092110408950F9333
:101C10001F9341E050E060E070E004C0440F551FA6
:101C2000661F771F8A95D2F78091E1049091E204B4
:101C3000A091E304B091E4048A019B01082B192BC5
:101C40002A2B3B2BC901B8011F910F910C94A20DB7
:101C500060931604709317048093180490931904EA
:101C60000C94850D40915E04803F59F480915F048F
:101C700087FF0DC010925F0441110BC010925904F0
:101C800008C0813F81F480915F0418169CF34423BF
:101C900081F08091600490916104892B09F05AC011
:101CA000109256040895823F49F447FFF0CF1092F6
:101CB0005E0480915F048111ECCFE0CF833F19F483
:101CC0001416ACF3E4CF90916004893F29F41916FF
:101CD000F4F610926004DBCF8A3F19F497FFD7CF58
:101CE000F8CF909161048B3F29F497FFD0CF1092E9
:101CF0006104CDCF8C3F19F41916CCF3C8CF9CE00A
:101D0000980F953090F4845F990B21E030E0B90191
:101D100002C0660F771F8A95E2F7CB0180959091FC
:101D20005D04892380935D04B2CF8D3F31F48091AF
:101D3000A6038E7F8093A603AACF8E3F21F48091C5
:101D4000A6038D7FF7CF8F3F09F0A1CF8091A60327
:101D50008B7FF0CF08958823B1F19CEF980F913AD3
:101D600038F4682F80EA92E00E941A070C947F07EB
:101D700090E2980F983088F4877021E030E0A90154
:101D800002C0440F551F8A95E2F7CA0180959091D1
:101D90001404892380931404E9CF9BE5980F9330B2
:101DA00020F490E080E00C944D0898E5980F97316E
:101DB00020F490E080E00C943708803F20F00E94EF
:101DC000320E0C945E0D08958091A60380FD16C01E
:101DD00081FD16C082FD16C0809156048823A1F0B3
:101DE000883280F428E0829FC001112468E270E00C
:101DF0000E94622D862F672B39F0089582E00895A6
:101E000084E0089588E0089581E008958091A60314
:101E100080FD14C081FD14C082FD16C0809159045C
:101E2000882381F0843180F422E3829FC001112451
:101E300064E170E00E94622D862F08958CE0089581
:101E400089E1089585E0089582E30895803F31F4A3
:101E50000E94060F819580935F040895813F19F4D5
:101E60000E94060FF8CF823F31F40E94060F819541
:101E700080935E040895833F19F40E94060FF8CF03
:101E8000893F29F40E94E40E8093600408958A3FFC
:101E900021F40E94E40E8195F7CF8B3F31F40E942C
:101EA000E40E81958093610408958C3F19F40E949B
:101EB000E40EF8CF9CE0980F953070F4845F990B96
:101EC00021E030E001C0220F8A95EAF780915D049D
:101ED000822B80935D0408958D3F31F48091A60399
:101EE00081608093A60308958E3F21F48091A6031C
:101EF0008260F7CF8F3FB9F78091A6038460F1CF5E
:101F0000CF93C82F882309F46FC08CEF8C0F813AD0
:101F1000C0F580911001882311F18091240487FF7E
:101F20001EC0EC2FE695E695E695F0E0E056FD4FF5
:101F3000828190E04C2F477021E030E002C0220FF8
:101F4000331F4A95E2F782239323892B91F06C2F5C
:101F500080EA92E00E941A070E947F070AC0E2EA24
:101F6000F2E088EA92E02191C21789F38E179F0769
:101F7000D1F76C2F80EA92E00E944407CF910C9435
:101F80007F0780E28C0F883068F4C77021E030E072
:101F900001C0220FCA95EAF780911404822B809326
:101FA0001404ECCFEBE5EC0FE33040F4F0E0E05E3E
:101FB000FE4F808190E0CF910C944D08E8E5EC0F46
:101FC000E73150F4F0E0EE0FFF1FED5DFE4F808132
:101FD0009181CF910C943708C03F30F08C2F0E9434
:101FE000260FCF910C945E0DCF910895F894E82FB1
:101FF000E295EF70F0E031A1282F2F7081E090E0A2
:1020000001C0880F2A95EAF7982F9095932391A302
:1020100092A1892B82A3789408959091240492FF31
:1020200006C0282F28712830F9F4877F846093FF39
:1020300006C0282F28712831F1F4877E8461209111
:10204000250420FF06C0382F38713830D9F4877F37
:10205000816021FF06C0282F28712831D1F4877EA6
:10206000816194FD877E0895282F24712430F9F62C
:102070008B7F8860DCCF282F2471243101F78B7E81
:102080008861DDCF382F3171313019F78E7F88604C
:10209000E0CF282F2171213121F78E7E8861E1CF99
:1020A000CF9384E090E00E94F82DC82F82E290E068
:1020B0000E94F82D982F8C2FCF9108950F931F9386
:1020C000CF93DF93C42FD0E0CC0FDD1F2EE1629FB2
:1020D000C00DD11D112436E9839FC00DD11D1124DF
:1020E000CE0187960E94F82D082F10E0102F0027B0
:1020F000CE0188960E94F82D9801282BC901DF9106
:10210000CF911F910F910895462F843038F4753088
:1021100028F46F3018F4672F0C945E1090E080E084
:102120000895CF93DF930E948410EC0182389105CB
:10213000A9F1D8F58133910509F496C048F58932A3
:10214000910509F48AC08A9709F495C0C11521E563
:10215000D20708F0BCC0C11530E5D30708F014C1A0
:10216000C83ED10508F09CC0C03ED10560F5C83A14
:10217000D10508F087C0C53AD10508F0FDC0C130CF
:10218000D10509F12097F9F0C430D105E0F440C041
:102190008533910509F45AC0C997C1F6809124048A
:1021A000837089F0C0EED0E00EC0833E910599F1B6
:1021B00070F4803E910501F1823E910539F68091DF
:1021C000240482FD21C0CE01DF91CF910895863E87
:1021D000910561F1873E910571F1843E910509F009
:1021E000B5CF8091250481FFEECF80912404C7EE06
:1021F000D0E084FD0DC0E7CF8091240480FD12C1A2
:102200009091250490FFDFCFC3EED0E084FFDBCFB9
:10221000D0E0C0E0D8CF8091240482FD06C1909127
:10222000250490FDBFCF84FFCECFF2CF8091240450
:1022300083FDDDCFC8CF8091240483FDF9C0909148
:10224000250491FFF0CFC4EED0E0BDCF80912404EF
:1022500085FFB9CFC9E2D0E0B6CF8091240485FFD5
:10226000B2CFC5E3D0E0AFCF8091240486FFABCFDF
:10227000CAE2D0E0A8CF8091240486FFA4CFC1E3B6
:10228000D0E0A1CFCF3BD10518F6C85AD0E0CC0F93
:10229000DD1FCD5DDE4F0990D881C02DD46493CF72
:1022A000C11540E2D40758F4C11581E0D80708F001
:1022B0008ACFC03FD10508F4ABCFD06584CFC1151C
:1022C00090E4D90708F4A4CFDF70D06A7CCFC115A1
:1022D00025E5D20700F5C11534E5D30708F08AC01B
:1022E000C11543E5D40708F071C0C11582E5D807D0
:1022F00008F467C0CE018370992721E030E002C066
:10230000220F331F8A95E2F7C695C69580E2C89FD3
:10231000E001112452C0C11599E5D907A8F4C115EF
:1023200028E5D20708F06BC0C11536E5D30708F0E1
:102330006FCF8C2F0E940D10C82FD0E0DC2FCC2740
:10234000CC27DF71D0623FCFC1154AE5D40708F42E
:102350005BC0CE0190568115904208F059CF8D2F69
:102360008F710E940D1090E0982F882788279F7109
:102370009C012C2BE901E6CFC55AD0E0C05EDE4FB0
:10238000C881D0E0D0641FCFCE01E4E09695879558
:10239000EA95E1F783702C2F26952695237040E26D
:1023A000249F90011124382B8C2F8370C1E0D0E042
:1023B00002C0CC0FDD1F8A95E2F7C22BD32BDC685D
:1023C00002CFDC2FCC27C16FD06AFDCECE01837047
:1023D000992721E030E002C0220F331F8A95E2F7EF
:1023E000C695C69590E2C99FE0011124C22BD32B5C
:1023F000DA68E9CEDC2FCC27C46FD06AE4CEDC2FBC
:10240000CC27C06FD06ADFCE8C2F8F700E940D104A
:1024100034E0D695C7953A95E1F7CF709C2FEC0143
:10242000D069D1CEC9E3D0E0CECEC2EED0E0CBCEE3
:10243000C6EED0E0C8CEBF92CF92DF92EF92FF926D
:102440000F931F93CF93DF938C01C090E104D09042
:10245000E204E090E304F090E4048091160490918B
:102460001704A0911804B0911904C82AD92AEA2A9D
:10247000FB2ACFE1D0E0BC2ED701C6010C2E04C050
:10248000B695A795979587950A94D2F780FD0EC0CB
:10249000219788F7B12C8B2DDF91CF911F910F9150
:1024A000FF90EF90DF90CF90BF900895B8018C2FF0
:1024B0000E949110019761F3EECFCF93DF93EC016F
:1024C0000E941B12BE01DF91CF910C9491100E94CB
:1024D0005D12292F2F7092959F7092509E3078F444
:1024E000E92FF0E0E156F14D0C94762D803F19F084
:1024F00020F4883E20F481E00895843FE1F380E0F9
:102500000895883EC0F3813FD1F7F5CF822F86959D
:102510008695869508956F927F928F929F92AF9243
:10252000BF92CF92DF92EF92FF920F931F93CF93C0
:10253000DF9384ECC82E82E0D82E9BEDE92EF12C9F
:10254000E701C659D10936011BC0F5018590949069
:10255000692DC8010E94162E682DC80101960E949F
:10256000162E82E0A80EB11C0E5F1F4FC017D107B8
:1025700061F78EE1680E711C6E96CE15DF0529F0AD
:102580008E010E5111095301E0CF7E0186E9E80E5C
:10259000F11C86E9C80ED11C83E3E81683E0F80637
:1025A00079F6DF91CF911F910F91FF90EF90DF901F
:1025B000CF90BF90AF909F908F907F906F90089535
:1025C000CF93C92F682F84E090E00E94162E6C2FC5
:1025D00082E290E0CF910C94162E9091250492FB0C
:1025E000222720F9281751F080FB92F990932504B7
:1025F00080912404909125040C94E0120895CF93C7
:10260000DF93CFE7D2E060E0CE010E94162E219644
:10261000C11584E0D807B9F7DF91CF9108951F93D2
:10262000CF93DF93EC01FC01ED5AFD4F80816823CD
:10263000A1F00E94CF2D182F0E94CF2D612F782F4F
:102640008091DE040E94FE09462F282F672FCE01BD
:10265000DF91CF911F910C948C08DF91CF911F9146
:102660000895DF92EF92FF920F931F93CF93DF9322
:102670008C01FC01ED5AFD4F8081682381F1D090DF
:10268000DD04D091DE04C091DC04EC2EF12C0E941C
:10269000CF2D282FC7018C549F4F68E671E00E9410
:1026A000622D8E199F0997FD0396959587959595AF
:1026B000879523706C2F289F600D11247D2D8D2F01
:1026C0000E94FE09462F282F672FC801DF91CF9166
:1026D0001F910F91FF90EF90DF900C948C08DF9189
:1026E000CF911F910F91FF90EF90DF900895CF93BE
:1026F000DF9300D00F92CDB7DEB79091A104943054
:1027000011F589837B836A839093E9008FEF909121
:10271000E800815095FD06C095ED9A95F1F700000F
:102720008111F5CF8091E80085FF0DC050E040E0B9
:1027300063E070E0CE0101960E94CE038091E80034
:102740008E778093E8000F900F900F90DF91CF91DC
:102750000895BC0184E00C947713BC0183E00C94D1
:1027600077139C0184E08093E9009FEF8091E8005B
:10277000915085FD06C085ED8A95F1F70000911115
:10278000F5CF8091E80085FF0CC050E040E066E0A6
:1027900070E0C9010E94CE038091E8008E7780939B
:1027A000E8000895CF93DF93EC0180911001882316
:1027B000B1F18091240487FF32C060E284E080930D
:1027C000E9008FEF9091E800815095FD06C095EDEE
:1027D0009A95F1F700008111F5CF8091E80085FF0F
:1027E0001BC08091100170E050E040E0811104C0F6
:1027F00050E040E068E070E0CE010E94CE0380919E
:10280000E8008E778093E80080E2FE01AFE7B4E055
:1028100001900D928A95E1F7DF91CF91089568E0DC
:1028200081E0CDCF81E08093E00080E28093D8000A
:102830001092C9008FE19EE40197F1F700C00000FB
:1028400087E090EBDC018093E5049093E604A0938D
:10285000E704B093E80488E19CE00FB6F894A895EB
:10286000809360000FBE90936000FFCF1F93CF93C3
:10287000DF93182FD0E0C0E0893311F4C0E5D0E039
:10288000812F0E94800F209731F4812FDF91CF910B
:102890001F910C94AB0E8FE99FE00197F1F700C0F8
:1028A00000002197F0CF0F931F93CF93DF93C62F94
:1028B000D42F022FFC0182818823A1F06093DA04D7
:1028C0000E940E079093D9048093D804C77081E0CA
:1028D00001C0880FCA95EAF7DF91CF911F910F9140
:1028E0000C942D088091DA04681335C08091D804C7
:1028F0009091D9040E94FF06883C910560F510E292
:102900001D0FCD17B9F080E28C0F883040F4C770EE
:1029100081E001C0880FCA95EAF70E9422081830AA
:1029200048F481E09D2F977001C0880F9A95EAF7CF
:102930000E942D08802F0E943614183098F4D7700A
:1029400081E001C0880FDA95EAF7DF91CF911F91FE
:102950000F910C942208C77081E001C0880FCA95BE
:10296000EAF7F3CFDF91CF911F910F9108956A9A03
:102970003EB13B7F2EB124604FB7F89483EC92E0D8
:10298000FC015191CF0168E02EB9000000C057FF53
:102990003EB9550F000000C000C000C03EB900C0E5
:1029A0006A9591F7F3E0813A9F0751F74FBF8FE5A2
:1029B00094E00197F1F700C000000895AF92BF9234
:1029C000DF92EF92FF920F931F93CF93DF93C1E5B6
:1029D000D1E00AE114E0D12CEE24E394F12C8991AA
:1029E000F894E82FE295EF70F0E021A18F70A70135
:1029F00002C0440F551F8A95E2F7CA01922F982B07
:102A000091A392A18095892382A3789400C0E6E5E2
:102A1000F1E030E020E0B12CA12C4191A42FA2954F
:102A2000AF70B0E090968C9190E04F7002C0959599
:102A300087954A95E2F780FD67C0C701022E02C064
:102A4000880F991F0A94E2F7A82AB92A2F5F3F4FEF
:102A50002F30310511F7FE01319780810E94F60F6A
:102A600050EA5A95F1F7F80180819181A816B906CC
:102A700009F44DC0B182A08281E0D82A0E5F1F4FB9
:102A8000F1E0C635DF0709F0AACFDD2009F441C027
:102A900081E08093C2020E940E079093C10280934E
:102AA000C0028091C0029091C1020E94FF06069769
:102AB000A0F180911A0490911B0490936F0480936D
:102AC0006E0480911C0490911D0490937104809376
:102AD000700480911E0490911F049093730480935E
:102AE0007204809120049091210490937504809346
:102AF000740480912204909123049093770480932E
:102B000076041092C20209C090E080E09DCF80E080
:102B1000B4CF8091C2028111C4CF8D2DDF91CF91AE
:102B20001F910F91FF90EF90DF90BF90AF900895AD
:102B30006AEE7EEF90E080E00E94342E60E082E05A
:102B400090E00E94162E60E083E090E00E94162E36
:102B5000109216041092170410921804109219047F
:102B600060E084E090E00E94162E60E082E290E057
:102B70000E94162E60E085E090E00E94162E60E034
:102B800086E090E00E94162E6FEF87E090E00E94B2
:102B9000162E40E050E0BA0188E090E00E94282E16
:102BA00060E08DE090E00E94162E40E050E0BA0117
:102BB00088E190E00E94282E60E087E190E00E948A
:102BC000162E40E050E0BA018CE190E00E94282EE1
:102BD00070E060E080E290E00E94342E40E050E03F
:102BE000BA0188E190E00E94282E40E050E0BA014E
:102BF0008FE090E00E94282E40E050E0BA0183E18F
:102C000090E00C94282E1092140480911001E2EAB6
:102C1000F2E0882359F08091240487FF07C08EE1F9
:102C2000DF011D928A95E9F70C94850D86E0F8CFB7
:102C30001F93CF93DF93CDB7DEB7AA970FB6F89463
:102C4000DEBF0FBECDBF83EA94E02091F100DC012E
:102C50002D93CD01B4E08B3A9B07B9F78091A40482
:102C6000833009F471C0B8F4813009F448C082306F
:102C700009F4B2C08091E80083FF3AC18091A304B7
:102C80009091A4049A3008F033C1E92FF0E0E355A5
:102C9000F14D0C94762D8A3009F48DC08B3009F4F7
:102CA00070C0893039F78091A304813219F780917F
:102CB000A7049091A804009711F00297D9F680918B
:102CC000E800877F8093E8008091E80082FF37C0AA
:102CD0009091F3008091F200029729F48091F10025
:102CE0008B7F813021F48091F10080937E0480916C
:102CF000E8008B778093E8000E94F803BBCF8091B7
:102D0000A304813A09F0B6CF8091E800877F8093D1
:102D1000E8008091A7049091A804892B61F460E2F7
:102D20008FE794E070E00E94AA048091E8008B771E
:102D30008093E8009FCF60E090E080E0F3CF809147
:102D4000A1048111C1CF96CF8091A304813A09F0EB
:102D500091CF8091A7049091A804892B09F08ACF84
:102D60008091E800877F8093E8008091E80080FFF1
:102D7000FCCF809110018093F1008091E8008E7764
:102D8000B9CF8091A304813209F074CF8091A70458
:102D90009091A804892B09F06DCF8091E800877F7E
:102DA0008093E8000E94F8038091A50480931001AD
:102DB0000E9403165FCF8091A304813209F05ACF9D
:102DC0008091E800877F8093E8000E94F80380915B
:102DD000A60480937D044ECF8091A304813A09F02C
:102DE00049CF8091E800877F8093E8008091E800D8
:102DF00080FFFCCF80917D04BECF803899F082386F
:102E000009F076C08091A7048F70873008F070C0F9
:102E10008093E9008091EB0085FB882780F9109270
:102E2000E90006C080919F049091A00491118260F6
:102E30009091E800977F9093E8008093F1001092C2
:102E4000F1008091E8008E77B5C1882309F4A2C112
:102E5000823009F04DC08091A5048111A6C18091F6
:102E6000A7048F702FEF280F263008F041C0809301
:102E7000E9002091EB0020FF98C1933031F480915C
:102E8000EB0080628093EB0090C19091EB00906129
:102E90009093EB0021E030E001C0220F8A95EAF721
:102EA0002093EA001092EA008091EB008860EACF5C
:102EB00081111EC01091A5041F778091E3008078D6
:102EC000812B8093E3008091E800877F8093E80066
:102ED0000E94F8038091E80080FFFCCF8091E3001E
:102EE00080688093E30082E0111183E08093A10465
:102EF0008091E80083FF0AC08091E800877F80937B
:102F0000E8008091EB0080628093EB00AA960FB6F8
:102F1000F894DEBF0FBECDBFDF91CF911F91089512
:102F20008058823028F72091A5043091A6042C3DCA
:102F3000E3E03E07A1F583E08A838AE289834FB705
:102F4000F894DE01139620E03EE051E2E32FF0E03A
:102F500050935700E49120FF03C0E295EF703F5F6C
:102F6000EF708E2F90E0EA30C0F0C7968D939D935E
:102F70002F5F243159F74FBF8091E800877F8093FE
:102F8000E8006AE270E0CE0101960E94AA048091F6
:102F9000E8008B778093E800ABCFC096E7CF8091B5
:102FA000A7049091A804432F55274330510509F4F5
:102FB0004AC078F54130510509F47AC08BE590E0BC
:102FC000ECECF5E04230510509F092CF2091E80099
:102FD000277F2093E8002091A9043091AA0482174A
:102FE000930708F49C0140E02115310509F065C004
:102FF000411163C08091E80082FDC9CF8091A10496
:10300000882329F2853019F28091E80083FFF2CFFE
:10301000BECF4132510509F43CC04232510509F09E
:1030200067CF8330910508F063CFFC01EE0FFF1FDF
:10303000E859FE4F0190F081E02D8B599E4FDC0145
:103040008C9190E01AC0332721303105D1F0211541
:10305000310561F02230310509F04ACFE9E3F6E0AD
:10306000E4918E2F90E0E9E3F6E007C0E5E6F6E0B4
:10307000E4918E2F90E0E5E6F6E0009709F438CF72
:10308000A5CFEBE4F6E0E4918E2F90E0EBE4F6E0E0
:10309000F4CF8330910508F02BCF880F991FFC01E6
:1030A000E259FE4F0190F081E02D89E090E08ECF53
:1030B00082E190E0E7E2F6E089CF8091A1048823E5
:1030C00009F465CF853009F462CF8091E80083FD73
:1030D0005ECF8091E80082FD8DCF8091E80080FF77
:1030E00083CF9091F3008091F2002115310519F002
:1030F0008830910550F041E0089709F040E0809158
:10310000E8008E778093E8006FCF44914093F10000
:103110003196215031090196E8CF803809F0E8CE88
:103120008091E800877F8093E8008091A2048093DB
:10313000F10087CE8111DCCE1091A504123008F089
:10314000D7CE8091E800877F8093E8001093A20497
:103150000E94F803112311F084E005C08091E30080
:1031600087FDFACF81E08093A10442E061EC81E029
:103170000E94170442E261EC84E00E94170442E2DC
:1031800061EC82E00E94170442E260EC83E00E945E
:103190001704AECE8091A504813009F0A9CE81E05C
:1031A000933009F080E08093A0041092E9008091B0
:1031B000E800877F8093E8000E94F80399CE46E0FC
:1031C00050E06CE170E08BED94E00C94062E909151
:1031D000DB04937089F0811107C094609093DB0445
:1031E000109214010C94DF18883210F09C69F6CF0D
:1031F000880F880F982BF2CF08958091DB04869575
:103200008695815009F487E20C94E7188091DB04DD
:10321000869586958F5F883208F081E00C94E718D8
:103220009091DB04937059F08093DC046093DD048B
:103230004D3808F04CE84093DE040C94DF180895F4
:10324000EBEDF4E0438120E1421B08F440E0818192
:10325000628190E00C941019EBEDF4E0438120E1E1
:10326000420F08F44FEF8181628190E00C941019B5
:10327000EBEDF4E0628120E1621B08F460E0818103
:10328000438190E00C941019EBEDF4E0628120E1B1
:10329000620F08F46FEF8181438190E00C94101964
:1032A000EBEDF4E08181438162818850990B0C94AD
:1032B0001019EBEDF4E0818190E043816281089682
:1032C0000C9410193F924F925F926F927F928F925F
:1032D0009F92AF92BF92CF92DF92EF92FF920F93A5
:1032E0001F93CF93DF9300D000D00F92CDB7DEB7FE
:1032F0008C01FC0183819481892B31F08081918143
:1033000089238F3F09F0D0C50F900F900F900F9039
:103310000F90DF91CF911F910F91FF90EF90DF9071
:10332000CF90BF90AF909F908F907F906F905F9065
:103330004F903F9008950E941B12F82E682F8981AC
:103340009A810E94EC0769817A818F2D0E948410F6
:103350007C01F8018281882309F499C597012251E3
:103360003F452031310508F065C58FEF93E00E949D
:10337000F82DFEEEEF0E5FE7852E52E0952E8823A6
:1033800081F180911104877009F4BECFF801828128
:10339000882309F4B9CF82E00F900F900F900F901F
:1033A0000F90DF91CF911F910F91FF90EF90DF90E1
:1033B000CF90BF90AF909F908F907F906F905F90D5
:1033C0004F903F900C94EB0D811424E09206C9F2CB
:1033D000C4010E94F82D811101C0EA943FEF831AC5
:1033E000930AE110F1CF1C821B82442443944AE0EB
:1033F000342E74018FEFE81AF80AC4010E94F82DE8
:1034000089831A82882309F4BCCF9FEF980F9330E9
:1034100000F58A83498292E0890E911CC7010E94BF
:10342000F82D8B83882309F4ACCFFE0131967F0100
:10343000F70120812223E9F2213009F049C091816E
:103440008281913041F4F2E0EF0EF11C0E943614BB
:1034500009C04701EACF923049F422E0E20EF11CA4
:103460000E94800F3FEFE31AF30AE2CF933031F46A
:1034700032E0E30EF11C0E94AB0EF4CF943021F049
:103480008FEFE81AF80AEECF92E0E90EF11C30E077
:1034900020E0B7016F5F7F4FF70141818053990BA7
:1034A0008A30910550F021503109E0F28FE99FE018
:1034B0000197F1F700C00000F6CF329EF001339E75
:1034C000F00D11249C012E0F3F1F842F7B01E1CFB3
:1034D000E22FF0E0E45BFA4F5490822F86958695B8
:1034E000869590E0FC01E45CFA4F64902770712CA3
:1034F000022E02C0759467940A94E2F7E1E06E220E
:103500007724FC01E45DFA4FA490B12C022E02C096
:10351000B594A7940A94E2F7F1E0AF22BB24FC0132
:10352000E45EFA4FC490D12C02C0D594C7942A957A
:10353000E2F721E0C222DD246114710419F081EE6A
:103540000E94800FA114B10419F086EE0E94800F32
:10355000852D0E943614AB2819F086EE0E94AB0E22
:10356000672819F081EE0E94AB0ECD2809F47ACFBE
:103570008CE26CCF81E00E94070E0E94AC0D01CF5F
:1035800081E00E94C80DF9CF82E0F5CF95EFE916F2
:103590009CE5F90609F462C008F45CC027E245EE38
:1035A00066EEF6EFEF16FCE5FF0609F46CC488231F
:1035B00009F48BC41092DA0422E0E2162CE5F2063C
:1035C00008F445C136E1E3163CE5F30630F0C701E7
:1035D0008A5F9C45099708F03AC10E945010909369
:1035E00025048093240480E1E8168CE5F80609F4AC
:1035F000FDC008F07CC0E8E0EE16ECE5FE0609F43C
:10360000E7C008F048C024E0E2162CE5F20609F411
:10361000D7C058F582E0E8168CE5F80609F4CAC070
:1036200080912404826093E0E9169CE5F90609F490
:10363000C4C080912404909125040E94E0120E944D
:1036400003169FCE27E245EE65EE1DC426E241EE4D
:1036500060EE19C427E245EE64EE15C426E241EEA1
:1036600062EE11C428E241E0EFCF80912404806132
:10367000E6E0EE16ECE5FE0609F49FC08091240416
:103680008860F7E0EF16FCE5FF0608F496C080912D
:103690002404806292C0809124048D7F2CE0E21685
:1036A0002CE5F20609F489C060F48AE0E8168CE59E
:1036B000F80609F497C008F48FC0809124048E7F27
:1036C0007CC080912404877FEEE0EE16ECE5FE06D8
:1036D00009F473C0809124048B7FFFE0EF16FCE5B2
:1036E000FF0608F46AC0809124048F7E66C02BEF29
:1036F000E2162CE5F20609F467C068F583E1E816E6
:103700008CE5F80609F47AC090F4E1E1EE16ECE5F8
:10371000FE0609F46FC0F2E1EF16FCE5FF0609F0C2
:1037200088CF0E940316809124048F7746C025E13C
:10373000E2162CE5F20609F469C008F47DC08AEFB0
:10374000E8168CE5F80609F074CF809125048160B5
:10375000809325046ECF9FEFE9169CE5F90609F4E6
:1037600051C0A0F4809125048D7FFDEFEF16FCE59C
:10377000FF0671F3809125048E7F2EEFE2162CE573
:10378000F20630F3809125048360E2CF31E0E31646
:103790003DE5F30609F459C008F444C060E092E046
:1037A000E9169DE5F90609F044CF8EE090E00E940D
:1037B000162E3FCF8091240481608093240439CF5A
:1037C000809124048460F9CF809125048260C0CF69
:1037D000809124048064F1CF0E9403168091240418
:1037E0008068EBCF809124048C60E7CF8091240423
:1037F0008F7DE3CF809124048F7BDFCF80912404E1
:10380000837FDBCF809125048C7FA2CF809124041D
:1038100082FB992790F921E0922790FB82F990FB97
:1038200083F9CBCF80912504982F909591708E7F4E
:10383000892B90FB81F98CCF0E9403169091240470
:10384000892F97FB87F98058B8CF61E0AECF809180
:103850001404E6E1EE16ECE5FE0609F045C38A7AAB
:1038600091E009F490E09093A50369E2811165E38A
:1038700080EA92E00E9444070E947F0782CD8091F7
:10388000DB0491E089278093DB04109214010E94ED
:10389000DF1877CD4DEF58E166E079E10E946F08BF
:1038A00070CD46E059E16DEF78E1F8CF40E559E1A0
:1038B00069E579E1F3CF49E559E160E579E1EECFDA
:1038C00048E359E164E479E1E9CF44E459E168E38C
:1038D00079E1E4CF4CE259E160E279E1DFCF4BEAF4
:1038E00052E261EA72E2DACF41EA52E26BEA72E254
:1038F000D5CF81E00E94E71844CD8DE0FBCF9BE55A
:10390000E9169DE5F90611F1ECE5EE16EDE5FE068A
:1039100009F01CC38091250482FB882780F991E07F
:1039200089270E94ED1212C30E940316FFEF24E3C1
:103930003CE0F15020403040E1F700C000000E9420
:1039400012140E9498151DCD81E0EBCF80E0E9CFE5
:10395000C7010E94C407D82E08C32F2D2F70A22E96
:103960008F2D807F19F0A29490EFA922DD20C9F05D
:10397000AA2069F080E28E0D883010F081100BC013
:1039800080911404A82AA09214040E947F078E2D0F
:103990000E94800F19C080911304A82AA0921304DA
:1039A000F4CF8E2D0E94AB0EAA2071F0A09480E27D
:1039B0008E0D883010F081103DC080911404A82233
:1039C000A09214040E947F07232D2850330B24302B
:1039D000310510F40E946308CC2009F495CC809145
:1039E000110480FD91CCF80112828595859585950D
:1039F0000E94070EC8010E946219809111048595EA
:103A0000859585950F900F900F900F900F90DF91F7
:103A1000CF911F910F91FF90EF90DF90CF90BF90CB
:103A2000AF909F908F907F906F905F904F903F905E
:103A30000C94C80D80911304A822A0921304C2CF45
:103A40003F2D3F70932E8F2D807F803219F09294FE
:103A500080EF9822882071F081E0881681F1DD20C6
:103A6000D9F1AA2091F1F801858180FF90CF8F7064
:103A700085832BC0DD20B1F090911504892D892B11
:103A8000A11003C00E942D089FCFE1E0AE12FACF33
:103A90002091250422FD98CF891709F495CF8093B2
:103AA000150492CFA11006C00E947907892D0E94AB
:103AB00022088ACFF1E0AF1609F486CFF5CFDD20DA
:103AC00031F025E02A1508F47FCF892DDBCF34E0D3
:103AD0003A1508F479CFEACFAA2041F3F9E38F121F
:103AE00009C02FEF37EE83E0215030408040E1F7EE
:103AF00000C000008E2D0E94AB0E66CF8F2D8695E4
:103B00008695837061F0813009F05ECFC7019370B4
:103B1000D11002C090E080E00E94370855CFC70165
:103B20009370D11002C090E080E00E944D084CCF0D
:103B30008E2DDD2029F00E94260F0E945E0D44CFBD
:103B40000E94320EFACF8F2D837009F066C0D1101B
:103B50003BCF8E2D829586958770880F880F6E2DAE
:103B60006F70462E512C712C612C082E04C0440C11
:103B7000551C661C771C0A94D2F740E050E0BA014D
:103B8000E4FE0FC04FE050E060E070E004C0440F7E
:103B9000551F661F771F8A95D2F7409550956095FF
:103BA00070958F2D869586958370823019F1D8F4A3
:103BB0008090160490901704A0901804B0901904F7
:103BC000813069F04429552966297729CB01BA014A
:103BD000682179218A219B210E94280EF5CE482850
:103BE00059286A287B28CB01BA01642975298629BE
:103BF0009729F2CF44295529662977294090160440
:103C0000509017046090180470901904CB01BA0109
:103C10006425752586259725DFCF8695DD2011F053
:103C20008F2D8170882309F4CFCE8E2D82958695B5
:103C30008770880F880F6E2D6F70462E512C712C57
:103C4000612C082E04C0440C551C661C771C0A9479
:103C5000D2F740E050E0BA01E4FE0FC04FE050E080
:103C600060E070E004C0440F551F661F771F8A95FF
:103C7000D2F740955095609570958F2D86958695D5
:103C80008370823019F1D8F48090E1049090E204BE
:103C9000A090E304B090E404813069F044295529F0
:103CA00066297729CB01BA01682179218A219B21D4
:103CB0000E94A20D89CE482859286A287B28CB016A
:103CC000BA016429752986299729F2CF44295529F3
:103CD000662977294090E1045090E2046090E30463
:103CE0007090E404CB01BA016425752586259725DB
:103CF000DFCF9F2D9F70F92EDD2029F0892F0E94A4
:103D0000070E8E2DBFCE8E2D0E9422088F2D0E9471
:103D1000C80D5ACE8E2DE2EF8E1609F457C0E81565
:103D200078F0F0EF8F1649F121EF821609F446C0C2
:103D3000DD2009F46FC0A1102ACE8F2D8F7143C0F2
:103D400033EF831609F447C094EF8912F1CFDD20D9
:103D500009F455C02F2D2F71F22E822F0E94070ECD
:103D60008091250482FD07C038E0F39EC001112434
:103D70008360809311048F2D26C0DD20D1F0E4E014
:103D8000EA1508F421CE2F2D2F7161E070E080E05C
:103D900090E004C0660F771F881F991F2A95D2F7FD
:103DA0004090E1045090E2046090E3047090E404D9
:103DB0009BCFF5E0FA1508F407CEE5CF8F2D8F7174
:103DC000DD2009F4A4CF0E94070EFECD8F2D8F7148
:103DD000DD20C9F39CCF60E070E0CB01DD2009F469
:103DE00067CF2F2D2F7161E070E080E090E004C07C
:103DF000660F771F881F991F2A95D2F759CF81E048
:103E00000E94EB0D81E08A1508F0DECD82E00E9471
:103E1000EB0DDACDAA2059F0893309F06BCE9FEF74
:103E2000E7EEF3E09150E040F040E1F761CE8F2DF6
:103E30008F716DCFF0E1EF16FFE5FF0609F49ACB25
:103E400021E1E2162FE5F20609F49ECB93EFE91685
:103E50009CE5F90609F4FACB08F098CBF8EDEF16DB
:103E6000FCE5FF0609F4EECB29EDE2162CE5F2069F
:103E700009F4F8CB37EDE3163CE5F30609F097CBF0
:103E800026E241EE61EEC8010E9453147ACA30E185
:103E9000E3163FE5F30609F473CB91E1E9169FE5DC
:103EA000F906A1F682E06DCB85E0DE011196019066
:103EB0000D928A95E1F7F801228189819A81211179
:103EC0003ACA0E94C407F82E3ECAF6E1EF16FCE596
:103ED000FF06E1F58091A50369E2811165E380EABF
:103EE00092E00E941A07C8CC82722AECE2162CE5F6
:103EF000F20609F4EFCC08F084C095ECE9169CE5D5
:103F0000F90609F4D3CC08F063C0F3ECEF16FCE536
:103F1000FF0609F4BFCC08F0C4CC32ECE3163CE554
:103F2000F30609F4ACCCFAE5EF16FDE5FF0609F45B
:103F30000BCD08F0E4CCE1143CE5F30609F4F4CC35
:103F40008EEDE8168CE5F80609F4FBCCF8018281C9
:103F5000E080F180882309F4FBCCC7010E941B128A
:103F6000D82E682FC7010E94EC07B7018D2D0E9443
:103F700091107C01882EF801D280A580A2943FE0A8
:103F8000A322809111048770A1F0CD2CDD2091F047
:103F90008F2D807F803421F080E28E0D883048F0B4
:103FA00082E00E94EB0D809111048770CC24C394B1
:103FB0008111C12C3F2C32942FE03222FBE0F3150B
:103FC00008F402CDE32DF0E0E954F14D0C94762D88
:103FD00097ECE9169CE5F90609F472CC08F46BCC71
:103FE000F8ECEF16FCE5FF0609F46FCC40E259E16E
:103FF0006CE279E129ECE2162CE5F20609F44ECCEC
:1040000092CF3FECE3163CE5F30609F476CCB0F42E
:10401000ECECEE16ECE5FE0609F466CC08F45FCC99
:104020002DECE2162CE5F20609F463CC85E03EECBB
:10403000E3163CE5F30609F45DCC75CF86EDE81692
:104040008CE5F80640F482E191EDE9169CE5F9066D
:1040500008F450CC96C9EDE5EE16FE0609F491C9B8
:1040600062CF1F93CF93DF938091AC03807FA9F43D
:104070008091A903882389F08091DE03D091AD035C
:104080006091A7037091A803A091AA03B091AB031C
:10409000C62FC72316E0D81304C0DF91CF911F911C
:1040A000089590E0109711F0CF3F19F401968770B2
:1040B000F2CF189F9001199F300D1124F901E2559C
:1040C000FC4F41814713F2CF40814613EFCF42812D
:1040D0004111ECCF438154814A1B5B0B483C510595
:1040E00028F78091AC038F7080618093AC03F90155
:1040F000ED54FC4F80818F708061808387EA93E06C
:104100000E946219DF91CF911F910C941808AF9211
:10411000BF92CF92DF92EF92FF920F931F93CF93B4
:10412000DF93CDB7DEB761970FB6F894DEBF0FBE51
:10413000CDBF8C0185E0F801DE011D9601900D9246
:104140008A95E1F7F80180819181E28027EAA22E29
:1041500023E0B22E6091AA037091AB036115710543
:1041600009F43EC13091A7034091A803232F2423D3
:104170002F3F09F435C1C380D480F090A903F60124
:10418000E61BF70BFF2009F4FBC02091AC03522F74
:10419000507FE83CF10508F0BBC0511178C0FE2CFF
:1041A000491321C038131FC0E1101DC02F702061BA
:1041B0002093AC03C5010E9462198091AC03F80101
:1041C00085838F2D61960FB6F894DEBF0FBECDBFED
:1041D000DF91CF911F910F91FF90EF90DF90CF90E3
:1041E000BF90AF900895CD2829F0282F29232F3F85
:1041F00009F014C120E0F22FF170DF2E20FF3DC046
:104200002091DE034091AD0356E0241315C08D8745
:104210009E878D859E850E945D12292F22952F7085
:104220002230F8F0243020F59F70F9F0F8019581E4
:10423000907FD9F4D12C1FC030E0529FF001539FE2
:10424000F00D1124E255FC4F6181961306C0608188
:10425000861303C06281E61210C02F5F3F4F2770A4
:10426000D4CF9F7011F0882329F3805E883010F33B
:10427000C8010E946219FD2CA4CFEE2009F4A1CF41
:104280008091AC0381608093AC03F12C9ACF4913E9
:1042900012C0381310C0E1100EC0F8012583C80108
:1042A0000E94621986E0F801A7EAB3E001900D923E
:1042B0008A95E1F786CF8D879E878D859E850E94A2
:1042C0006712882309F1EE20F9F08091AC03803267
:1042D00070F02091A7033091A80338872F831986A7
:1042E000DB86CA868C87CE0107960E94621986E01B
:1042F000F801A7EAB3E001900D928A95E1F70E94D8
:104300003120FF24F3945DCFC8010E946219F9CFD8
:1043100051110AC087EA93E00E94621986E0F50114
:1043200011928A95E9F7B1CF49130FC038130DC028
:10433000E1100BC0F8012583C8010E94621986E0D4
:10434000F50111928A95E9F73CCF8D879E878D857F
:104350009E850E9467128823B9F2EE20A9F280910F
:10436000AC03803220F22091A7033091A8033A8356
:1043700029831B82DD82CC828E83CE010196B5CF4C
:10438000E83CF105E0F6FE2CEE2009F4BDCF491320
:1043900016C0381314C08091AC0380FD83CF982FD2
:1043A000907F09F47FCFF8018583903F09F477CFA0
:1043B000982F907F905F8F70892B858370CF8D872A
:1043C0009E878D859E850E946712811190CF809176
:1043D000AC0381608093AC03C8010E946219F1CEE6
:1043E000EE2009F491CF8D879E878D859E850E9452
:1043F0006712F82E882309F487CF86E0F801A7EA30
:10440000B3E001900D928A95E1F78091A703909116
:10441000A8030E945D120E943120D3CE21E02E25F8
:10442000EACE1F93CF93DF93CDB7DEB767970FB672
:10443000F894DEBF0FBECDBF342F4B8B252F5C8B86
:104440006D8B7E8B8F8B8E899F89611110921304E7
:104450001A8A198A3D872E876F87998B888B86E009
:10446000FE013D96DE01179601900D928A95E1F7C7
:10447000CE0107960E948720882389F016E080915C
:10448000DE039091AD03891349C067960FB6F89487
:10449000DEBF0FBECDBFDF91CF911F91089586E0A3
:1044A000FE013796DE01119601900D928A95E1F793
:1044B0008A859B85892B11F38F81988589238F3F6E
:1044C000E9F22091AD0330E0C90101968770992788
:1044D0004091DE034817190671F40E9403161092EA
:1044E000AD031092DE0386E0E7EAF3E0DF011D9200
:1044F0008A95E9F7C3CF96E0929FD001939FB00DC4
:104500001124A255BC4FFE01319601900D929A954F
:10451000E1F78093AD030E941808B0CF819FC001DE
:10452000112482559C4F0E948720882309F4ADCF27
:104530008091DE0390E00196877099278093DE03D7
:104540009ECFEBEDF4E0248130E1230F08F42FEF50
:1045500024830C94DF18EBEDF4E0248130E1231B7D
:1045600008F420E024830C94DF18EBEDF4E089E1FB
:1045700080838091150190911601A091170181838C
:104580009283A3838FE784838FEF85830C94DF1856
:104590001F920F920FB60F9211242F933F934F93B8
:1045A0005F936F937F938F939F93AF93BF93CF93BB
:1045B000DF93EF93FF93D091E900DF708091EC00DF
:1045C000C82FC17080FDC0E81092E9008091F00012
:1045D000877F8093F00078940E9418161092E9006B
:1045E0008091F00088608093F000CD2BCF70C09355
:1045F000E900FF91EF91DF91CF91BF91AF919F9132
:104600008F917F916F915F914F913F912F910F907B
:104610000FBE0F901F9018951F920F920FB60F921A
:1046200011242F933F934F935F936F937F938F93B7
:104630009F93AF93BF93EF93FF938091E10082FF2D
:1046400009C08091E20082FF05C08091E1008B7F6C
:104650008093E1008091DA0080FF24C08091D8002F
:1046600080FF20C08091DA008E7F8093DA008091F5
:10467000D90080FF9BC080E189BD82E189BD09B47A
:1046800000FEFDCF81E08093A10480917C04811124
:1046900009C00E947E030E9449048091E200846068
:1046A0008093E2008091E10080FF17C08091E200DA
:1046B00080FF13C08091E2008E7F8093E2008091A2
:1046C000E20080618093E2008091D8008062809354
:1046D000D80019BC85E08093A1048091E10084FF9B
:1046E00029C08091E20084FF25C080E189BD82E17C
:1046F00089BD89B5982F917080FFFBCF8091D8003C
:104700008F7D8093D8008091E1008F7E8093E100BF
:104710008091E2008F7E8093E2008091E2008160D0
:104720008093E2008091A204882309F445C084E0CC
:104730008093A1048091E10083FF27C08091E20073
:1047400083FF23C08091E100877F8093E10082E0B6
:104750008093A1041092A2048091E1008E7F809347
:10476000E1008091E2008E7F8093E2008091E20080
:1047700080618093E20042E060E080E00E941704E4
:104780008091F00088608093F000FF91EF91BF91DD
:10479000AF919F918F917F916F915F914F913F91D9
:1047A0002F910F900FBE0F901F90189519BC10926B
:1047B000A10410927C0476CF8091E30087FD93E002
:1047C0009093A104B7CFCDB7DEB7E1970FB6F894B9
:1047D000DEBF0FBECDBF84B7877F84BF0FB6F8940E
:1047E000A8958091600088618093600010926000BD
:1047F0000FBE80E890E00FB6F8948093610090932C
:1048000061000FBE85B7806885BF85B7806885BFAA
:104810008AEF96E090939F0280939E020E947E030F
:104820000E9449048091E20084608093E2007894C1
:104830008091A1048823A1F01091E9001F7090914C
:10484000EC00892F817090FD80E8182B1092E90010
:104850008091E80083FD0E9418161F701093E900F4
:1048600082E084BD93E095BD9AEF97BD80936E0082
:1048700080E30E94F60F81E30E94F60F82E30E941C
:10488000F60F83E30E94F60F86EC0E94F60F06E512
:1048900011E0B5E6EB2EB1E0FB2ED8018D918D0134
:1048A0000E94F60FE016F106C1F710921B04109259
:1048B0001A0410926F0410926E0410921D0410924C
:1048C0001C04109271041092700410921F04109234
:1048D0001E0410927304109272041092210410921C
:1048E0002004109275041092740410922304109204
:1048F0002204109277041092760490E080E00E94E7
:10490000002E8A3E9E4F11F00E94981582E090E0A2
:104910000E94F82D809363040E9450109093250408
:10492000809324040E94DE14EFEFF6E721E0E150CB
:10493000F0402040E1F700C000000E94DE148091AA
:104940006E0480FF17C06FEF83E290E00E94162E86
:104950006FEF84E290E00E94162E6FEF85E290E008
:104960000E94162E6FEF7FEF90E080E00E94342EC1
:104970000E94121483E090E00E94F82D682F70E0EE
:1049800090E080E00E94280E1092AB048FEF9FEF22
:104990009093C5048093C4049093C7048093C60485
:1049A0009093C9048093C8049093CB048093CA0465
:1049B0009093CD048093CC049093CF048093CE0445
:1049C0009093D1048093D0049093D3048093D20425
:1049D00010922704909341048093400490934304E1
:1049E0008093420490934504809344049093470439
:1049F00080934604909349048093480490934B0419
:104A000080934A0490934D0480934C0490934F04F8
:104A100080934E0490E080E00E94002E8A3E9E4FDC
:104A200021F00E9498150E94B52246E050E06CE10A
:104A300070E08BED94E00E94E82D8091DB048C7F88
:104A400011F40E94B52283E290E00E94F82D813299
:104A500011F00C94D62C84E290E00E94F82D87305F
:104A600011F00C94D62C85E290E00E94F82D803352
:104A700011F00C94D62C8091240480688093240437
:104A800080912404909125040E94E01286E091E038
:104A900090935504809354048091A10400E112E1A5
:104AA000853009F4E4C00E94DE14882359F08FB7E2
:104AB000F894409178045091790460917A0470914F
:104AC0007B048FBFAEE6B4E0BFA7AEA7A4E6EA2E94
:104AD000A4E0FA2EE4E7F1E0FCA7EBA7712C612C2F
:104AE000AEA5BFA54D905D90BFA7AEA7F701808191
:104AF00091818415950509F4F1C09C012425352583
:104B000039AB28ABD12CC12CAA24A394B12C88A9F1
:104B100099A98A219B21892B09F4D6C0C9A26AA22E
:104B200082010A211B2181E00115110509F480E0B1
:104B30008BA30E940E078160782F9DA38CA349A1AF
:104B40005AA16BA18DA10E941122D7018D919C9138
:104B500011978A259B258D939C93012B41F0EBA502
:104B6000FCA5EC0DFD1D80818F3F09F08AC0312C22
:104B700020902704032D10E0C801820D911D099794
:104B800064F168E0862E912C801A910AB801685D64
:104B90007B4FA40188E294E00E94DF2DB801605DA4
:104BA0007B4FA40180E394E00E94DF2DA401440F19
:104BB000551FB801660F771F605C7B4F80E494E05F
:104BC0000E94DF2DB801685C7B4FA40188E394E06C
:104BD0000E94DF2D2A94209227048091270490E0E0
:104BE000EDA5AE2FB0E09D01220F331F21543E4FA3
:104BF000AA0FBB1FBD0160547E4F5CC08091A10411
:104C0000843021F11092260448E150E080E40FB690
:104C1000F894A895409360000FBE8093600083B71E
:104C2000817F846083BF83B7816083BF78948895D8
:104C300083B78E7F83BF0FB6F894A89580916000EC
:104C4000886180936000109260000FBE8091A00484
:104C5000882369F00E94DE14EEE6F4E081919191E0
:104C6000892B09F08DC694E0E837F907B9F78091F0
:104C7000A104853009F4C2CF0E9403160E94630884
:104C800012CF8DA73324339473CF90E0FC01E95DFC
:104C9000FB4FD9015C915183DB015C915187BDA52C
:104CA000B18B880F991FFC01E95DFB4F128E118EAD
:104CB00091E0842F41E0480F931538F38093270447
:104CC0007394FBE0F71540F1AA0CBB1C2FEFC21A3E
:104CD000D20A3FE0C316D10409F019CF639442E031
:104CE000E40EF11C8BA59CA50F969CA78BA795E0C5
:104CF0006912F6CE711010C08FEF8EA38FA318A685
:104D00000E940E078160782F9AA789A74EA15FA104
:104D100068A58AA50E9411228091500490915104A7
:104D2000A0915204B09153044FB7F89400917804C5
:104D30001091790420917A0430917B044FBF2801AF
:104D40003901481A590A6A0A7B0A4FB7F894C09089
:104D50007804D0907904E0907A04F0907B044FBFFF
:104D6000C0925004D0925104E0925204F092530445
:104D700060912704E7E2F4E0462F50E00197AF4F3F
:104D8000BF4F801B910BA20BB30B651314C1409353
:104D900027048091DB04A82FA370BA2E19F0B82E37
:104DA000B694B69490911401913009F42EC19923D0
:104DB00009F414C1923009F441C4933009F447C492
:104DC00086E0ECE5F4E0DE01119601900D928A9503
:104DD000E1F7F0905E04E0905F04109160040091B0
:104DE000610410925E0410925F04109260041092AD
:104DF00061048F2D8E2909F448C080915A04909146
:104E00005B040E94FF069C0190915904992309F4C8
:104E1000F5C523333105C8F19F3F19F09F5F90938B
:104E20005904FF2059F00E94060F9FEF1F140CF445
:104E300091E0899F802D112480935E04EE2059F02B
:104E40000E94060F9FEF1E140CF491E0899F802DA5
:104E5000112480935F0430915E043323B1F02091DC
:104E60005F04222391F055EB3503C00111249923EF
:104E700009F40CC490935E0445EB240390011124C3
:104E8000332309F407C430935F04812F802B09F486
:104E900048C080915704909158040E94FF069C01DD
:104EA00090915604992309F4A4C525363105C8F11B
:104EB0009F3F19F09F5F90935604112359F00E9471
:104EC000E40E9FEF11160CF491E0899F802D1124C0
:104ED00080936004002359F00E94E40E9FEF1016A7
:104EE0000CF491E0899F802D11248093610430910E
:104EF00060043323B1F020916104222391F055EB3B
:104F00003503C0011124992309F4C8C390936004A8
:104F100045EB240390011124332309F4C3C33093D8
:104F2000610480915E0490915F04892B90916004EC
:104F3000892B90916104892B11F00E945E0D86E00F
:104F4000FE013196ACE5B4E001900D928A95E1F74F
:104F50000E94630890916204891721F00E946308FF
:104F6000809362048091A104843009F095CD83E0A0
:104F70008093E9008091E80082FF8ECD8091E80067
:104F800090E085FF06C00E949D03882309F48EC32C
:104F900091E08091E8008B778093E800992309F4F1
:104FA0007BCDE981E150E33108F01DC4F0E0ED5321
:104FB000F14D0C94762D218D328D4901B12CA12C0F
:104FC00088159905AA05BB0520F441505F5F32960C
:104FD000DCCE240D351D328F218FF8CF10921101B8
:104FE000C092D404D092D504E092D604F092D704B3
:104FF00089E2E7E2F4E0ABEAB4E001900D928A9531
:10500000E1F781E080931401DBCE90910501B912A4
:1050100023C083702091040130E091E082171306D1
:1050200009F490E0892F8170809313018091E0044E
:1050300090911201981739F08093120140E060E0DE
:1050400080E00E948A08B7E2BB1560F0EB2DF0E02B
:10505000EA52F14D0C94762D81E0E5CF8091130159
:10506000811102C010E027C040E060E080E00E94B3
:105070008A08F8CF009111018FE0089F002D1124BC
:10508000FFE0FF2EF00EEF2CEAE4EF1510F4EAE457
:10509000EE2E6091DC047091DD048091DE040E94AC
:1050A000FE09D62EC72EA82E10E00E1550F111E0E5
:1050B000F9E4FF15B8F2809111018F5F809311011F
:1050C0001111B8C282E08093140180911301811103
:1050D000B1C2BB2009F4B9C2E0915404F091550467
:1050E000309709F46DCE0190F081E02D099581FF94
:1050F00067CE2FEF4FEF6FEF8EE190E00E948C08AC
:105100005FCEF801ED5AFD4F808190911201892305
:1051100031F02A2D4D2D6C2DC8010E948C080F5F97
:105120001F4FC3CF009111018FE0089F002D112464
:105130007FE0F72EF00EEF2C2AE42F1510F46AE42E
:10514000E62E8090DD049090DE041091DC04612F47
:10515000782D892D0E94FE09D62EC72EA82E60918B
:10516000DF04610F782D892D0E94FE09962E872E6F
:10517000782E10E00E1530F011E039E43F1508F0FC
:105180009ACF70CFF801ED5AFD4F908180911201B6
:10519000892359F0272D492D682D90FD03C02A2D14
:1051A0004D2D6C2DC8010E948C080F5F1F4FE2CF60
:1051B000009111018FE0089F002D11245FE0F52E72
:1051C000F00EDF2C4AE44F1510F44AE4D42EC090C0
:1051D000DD04A090DE042091DF0430E4E32E5E2D98
:1051E000529F512D1124E52E10E00D1530F011E0E5
:1051F00089E48F1508F05FCF35CFF801ED5AFD4FE8
:105200008081909112018923B9F0F801EE0FFF1F00
:10521000E054FE4F808182958F706091DC048E9DFA
:10522000600D11247C2D8A2D0E94FE09462F282F07
:10523000672FC8010E948C080F5F1F4FD6CF0091C7
:1052400011018FE0089F002D11249FE0F92EF00E30
:10525000DF2C9AE49F1510F48AE4D82EC090DD0468
:10526000A090DE042091DF0410E4E12E3E2D329F59
:10527000312D1124E32E10E00D1530F011E049E43A
:105280004F1508F018CFEECEF801ED5AFD4F808192
:10529000909112018923D9F0F801EE0FFF1FE1541C
:1052A000FE4F6081E69EB0011124B5E075956795CB
:1052B000BA95E1F78091DC04680F7C2D8A2D0E945D
:1052C000FE09462F282F672FC8010E948C080F5F08
:1052D0001F4FD2CF009111018FE0089F002D1124A4
:1052E000EFE0FE2EF00EEF2C5AE45F1510F47AE496
:1052F000E72ED090DC041091DD04C090DE046091B4
:10530000DF046695669566958091D4049091D504E6
:105310000E94F4090E945A09805887FD8195880FE0
:10532000282F3C2D239F212D1124822F6D2D712F8D
:105330000E94FE09D62EC72EA82E10E00E1508F0EA
:105340009DCFF801ED5AFD4F808190911201892384
:1053500031F02A2D4D2D6C2DC8010E948C080F5F55
:105360001F4FECCF81ED96E00E946B0B182FA3CE60
:1053700087EA96E0F9CF8CE399E00E940F0BF6CF15
:105380008DE199E0FACF82E099E00E94920AEECF97
:1053900086EE98E0FACF85EA96E0E6CF8CE996E0D3
:1053A000E3CF83E996E0E0CF8AE796E0DDCF8CE6B5
:1053B00096E0EBCF8CEC99E0E0CF85ED98E0DDCF87
:1053C00081EC98E0E2CF8FE396E00E94B90BCECF5C
:1053D00081E196E0FACF8AED95E0F7CF10911301C5
:1053E00011111EC06091DF0420E1620F08F46FEF1D
:1053F0008091D4049091D5040E94F4096AE070E091
:105400000E944E2D892B09F02DCE0E94CF2D6AE4EB
:1054100070E00E94622D609112010E9431134BCE08
:10542000009111018FE0089F002D11246FE0D62E0E
:10543000D00E8D2D5AE45D1508F48AE410E0E82EB4
:10544000F12C0E151F0534F011E089E48D1508F0DC
:1054500032CE08CE60911201C8010E9431130F5F55
:105460001F4FEFCF1091130111111EC06091DF0487
:1054700020E1620F08F46FEF8091D4049091D5047D
:105480000E94F40965E070E00E944E2D892B09F01E
:10549000E9CD0E94CF2D6AE470E00E94622D6091F8
:1054A00012010E940F1307CE009111018FE0089F97
:1054B000002D11245FE0D52ED00E8D2D9AE49D1580
:1054C00008F48AE410E0E82EF12C0E151F0534F0E4
:1054D00011E0A9E4AD1508F0EECDC4CD6091120144
:1054E000C8010E940F130F5F1F4FEFCF00911101F2
:1054F0008FE0089F002D11244FE0F42EF00EEF2CCA
:10550000BAE4BF1510F43AE4E32EC090DD04D09065
:10551000DE041091DC046091DF0466956695669563
:105520008091D4049091D5040E94F4090E945A09F4
:10553000805887FD8195880F682F2CE0629F612D30
:105540001124610F7C2D8D2D0E94FE09D62EC72EB1
:10555000A82E10E00E1530F011E0E9E4EF1508F088
:10556000AACD80CDF801ED5AFD4F808190911201B6
:10557000892331F02A2D4D2D6C2DC8010E948C08F5
:105580000F5F1F4FE7CF89E799E0EECE89EC95E0FA
:10559000EBCE82EC95E00E941B0CE8CE8CEB95E004
:1055A000FACF8091AB0421E0382F321B08F430E0B1
:1055B000832F63EA75E00E94940CD8CE63EA75E00D
:1055C00080E0F9CF8091AB0421E0482F421B08F422
:1055D00040E0842F68E675E0EECF68E675E0F0CF36
:1055E0008091AB0421E0582F521B08F450E0852F26
:1055F00066E375E0E0CF66E375E0E2CF8091AB044F
:1056000021E0382F321B08F430E0832F6EE175E083
:10561000D2CF6EE175E0D4CF8091AB0421E0482F6A
:10562000421B08F440E0842F68E075E0C4CF68E0D6
:1056300075E0C6CFBB2009F4C3CB4ECDB0920501B7
:105640008370809304010E94B71483E0DBCC409107
:10565000D4045091D5046091D6047091D7042FB72B
:10566000F8948091780490917904A0917A04B09193
:105670007B042FBF841B950BA60BB70B4097A1058E
:10568000B10508F49DCB109214019ACB81E0809370
:105690005E04F2CB81E080935F04F7CB81E08093DE
:1056A000600436CC81E0809361043BCC00E210E0E2
:1056B000CE0101967C018091E80085FD0AC08091B1
:1056C000E8008B778093E8000E949D03882399F37C
:1056D0005FCC8091F100D7018D937D0101501109BC
:1056E00051F756CC1A8289E08B831AC08A818230A6
:1056F00009F476C18330D9F1813009F074C02FB735
:10570000F894609178047091790480917A04909172
:105710007B042FBF0E947C2D6B837C838D839E83B3
:105720008091A104843009F0B7C91091E9001F707D
:105730009091EC00892F817090FD80E8182B82E019
:105740008093E9008091E80080FF0DC050E040E0C8
:1057500060E270E0CE0101960E94CE038091E800E5
:105760008E778093E8001F701093E90095C98091AF
:105770006E0490916F049827892798279C838B83C8
:1057800080917004909171049827892798279E83AF
:105790008D838091720490917304982789279827AC
:1057A00098878F8380917404909175049827892736
:1057B00098279A8789878091760490917704982713
:1057C000892798279C878B87ABCF8A81823059F4B1
:1057D0006B817C818D819E810E947C2D86E290E090
:1057E0000E94162E9DCF8FEF89839ACF4C816B81BB
:1057F0008A810E945E109827892798279E838D832F
:105800008FCFED80FE80FE24EF24FE248A810B8161
:10581000BEE10B9F80011124E6E98E9F000D111D52
:1058200011248C8190E0880F991F080F191F6F2D8C
:10583000C80187960E94162E6E2DC8018896D0CF7B
:105840000E948B126DCF80E18A836ACF81E08A83C8
:1058500081E84ACF0A811B811027012710279E016A
:105860002F5F3F4F7901CC80A9014C0D511D6A017A
:10587000C80181589D4FEC14FD0409F451CF013843
:1058800051E0150758F40E94F82DD70114968C9317
:105890000F5F1F4FFFEFEF1AFF0AEACFF7011482E5
:1058A000F7CF0A811B811027012710279E012F5F48
:1058B0003F4F6901EC80E00EF12EF11CC8018158C8
:1058C0009D4FE016F10609F42BCF013831E01307A4
:1058D00028F4D60114966C910E94162EBFEFCB1AB5
:1058E000DB0A0F5F1F4FEACF0E94FF1219CF84E03F
:1058F000ABCF0A811B81102701271027FE013196AB
:105900007F01CC809F012C0D311D6901C801879654
:10591000CE14DF0409F404CF083532E0130758F43D
:105920000E94F82DD70114968C930F5F1F4FFFEF45
:10593000EF1AFF0AEBCFF7011482F7CF0A811B8120
:105940001027012710279E012F5F3F4F6901EC8030
:10595000E00EF12EF11CC80187960E151F0509F403
:10596000DFCE083532E0130728F4D60114966C9187
:105970000E94162EBFEFCB1ADB0A0F5F1F4FEBCF33
:1059800009BD19BD09B400FEFDCF8091D8008F7DFF
:105990008093D8008091E00082608093E000809145
:1059A000E00081FDFCCF0E94031661C960E086E241
:1059B00090E00E94162E0E948B120E94FF1261E25C
:1059C00083E290E00E94162E67E084E290E00E945D
:1059D000162E60E385E290E00E94162E0C943B2583
:1059E00086E290E00E94F82D1B821C821D828E832D
:1059F00097CE2D32314008F05DCA93CA2D32314026
:105A000008F00CCA42CA78941F921FB61F92112444
:105A10008F939F93AF93BF93809178049091790473
:105A2000A0917A04B0917B040196A11DB11D8093D1
:105A3000780490937904A0937A04B0937B04BF9187
:105A4000AF919F918F911F901FBE1F9018951F922D
:105A50001FB61F9211248F939F93AF93BF93809192
:105A60002604811113C08091780490917904A0914B
:105A70007A04B0917B044196A11DB11D80937804F6
:105A800090937904A0937A04B0937B04BF91AF9173
:105A90009F918F911F901FBE1F901895AA1BBB1B33
:105AA00051E107C0AA1FBB1FA617B70710F0A61B1E
:105AB000B70B881F991F5A95A9F780959095BC013F
:105AC000CD01089597FB072E16F4009407D077FDBB
:105AD00009D00E944E2D07FC05D03EF4909581958B
